{
  "contractName": "Model",
  "abi": [
    {
      "inputs": [
        {
          "internalType": "address",
          "name": "",
          "type": "address"
        }
      ],
      "name": "ServiceProviders",
      "outputs": [
        {
          "internalType": "uint256",
          "name": "id",
          "type": "uint256"
        },
        {
          "internalType": "address payable",
          "name": "Address",
          "type": "address"
        },
        {
          "internalType": "string",
          "name": "name",
          "type": "string"
        },
        {
          "internalType": "string",
          "name": "location",
          "type": "string"
        },
        {
          "internalType": "string",
          "name": "service",
          "type": "string"
        },
        {
          "internalType": "string",
          "name": "phone",
          "type": "string"
        },
        {
          "internalType": "string",
          "name": "email",
          "type": "string"
        },
        {
          "internalType": "uint256",
          "name": "charges",
          "type": "uint256"
        }
      ],
      "stateMutability": "view",
      "type": "function",
      "constant": true
    },
    {
      "inputs": [
        {
          "internalType": "address",
          "name": "",
          "type": "address"
        }
      ],
      "name": "Users",
      "outputs": [
        {
          "internalType": "uint256",
          "name": "id",
          "type": "uint256"
        },
        {
          "internalType": "address payable",
          "name": "Address",
          "type": "address"
        },
        {
          "internalType": "string",
          "name": "name",
          "type": "string"
        },
        {
          "internalType": "string",
          "name": "location",
          "type": "string"
        },
        {
          "internalType": "string",
          "name": "email",
          "type": "string"
        },
        {
          "internalType": "string",
          "name": "phone",
          "type": "string"
        }
      ],
      "stateMutability": "view",
      "type": "function",
      "constant": true
    },
    {
      "inputs": [
        {
          "internalType": "uint256",
          "name": "",
          "type": "uint256"
        }
      ],
      "name": "sp_Addresses",
      "outputs": [
        {
          "internalType": "address payable",
          "name": "",
          "type": "address"
        }
      ],
      "stateMutability": "view",
      "type": "function",
      "constant": true
    },
    {
      "inputs": [
        {
          "internalType": "uint256",
          "name": "",
          "type": "uint256"
        }
      ],
      "name": "user_Addresses",
      "outputs": [
        {
          "internalType": "address payable",
          "name": "",
          "type": "address"
        }
      ],
      "stateMutability": "view",
      "type": "function",
      "constant": true
    },
    {
      "inputs": [
        {
          "internalType": "string",
          "name": "name",
          "type": "string"
        },
        {
          "internalType": "string",
          "name": "location",
          "type": "string"
        },
        {
          "internalType": "string",
          "name": "email",
          "type": "string"
        },
        {
          "internalType": "string",
          "name": "phone",
          "type": "string"
        }
      ],
      "name": "addUser",
      "outputs": [],
      "stateMutability": "payable",
      "type": "function",
      "payable": true
    },
    {
      "inputs": [],
      "name": "getAllUsers",
      "outputs": [
        {
          "internalType": "address payable[]",
          "name": "",
          "type": "address[]"
        }
      ],
      "stateMutability": "view",
      "type": "function",
      "constant": true
    },
    {
      "inputs": [
        {
          "internalType": "address payable",
          "name": "Address",
          "type": "address"
        }
      ],
      "name": "userExist",
      "outputs": [
        {
          "internalType": "bool",
          "name": "",
          "type": "bool"
        }
      ],
      "stateMutability": "view",
      "type": "function",
      "constant": true
    },
    {
      "inputs": [
        {
          "internalType": "string",
          "name": "name",
          "type": "string"
        },
        {
          "internalType": "string",
          "name": "location",
          "type": "string"
        },
        {
          "internalType": "string",
          "name": "service",
          "type": "string"
        },
        {
          "internalType": "string",
          "name": "email",
          "type": "string"
        },
        {
          "internalType": "string",
          "name": "phone",
          "type": "string"
        },
        {
          "internalType": "uint256",
          "name": "charges",
          "type": "uint256"
        }
      ],
      "name": "addServiceProvider",
      "outputs": [],
      "stateMutability": "payable",
      "type": "function",
      "payable": true
    },
    {
      "inputs": [],
      "name": "getAllServiceProviders",
      "outputs": [
        {
          "internalType": "address payable[]",
          "name": "",
          "type": "address[]"
        }
      ],
      "stateMutability": "view",
      "type": "function",
      "constant": true
    }
  ],
  "bytecode": "0x6080604052600060025560006003556000600455600060055534801561002457600080fd5b506116dd806100346000396000f3fe6080604052600436106100865760003560e01c806399b956a01161005957806399b956a014610153578063ab7e7cf614610195578063e2842d79146101d2578063e60011e9146101fd578063f234687d1461021957610086565b806301cda3ac1461008b57806304a15d74146100a757806372eb7b60146100d25780637bc9883c14610116575b600080fd5b6100a560048036038101906100a09190610f83565b610256565b005b3480156100b357600080fd5b506100bc610441565b6040516100c99190611276565b60405180910390f35b3480156100de57600080fd5b506100f960048036038101906100f49190610f31565b6104cf565b60405161010d989796959493929190611330565b60405180910390f35b34801561012257600080fd5b5061013d60048036038101906101389190611147565b6107df565b60405161014a919061125b565b60405180910390f35b34801561015f57600080fd5b5061017a60048036038101906101759190610f31565b61081e565b60405161018c969594939291906112b3565b60405180910390f35b3480156101a157600080fd5b506101bc60048036038101906101b79190610f5a565b610a9a565b6040516101c99190611298565b60405180910390f35b3480156101de57600080fd5b506101e7610af9565b6040516101f49190611276565b60405180910390f35b61021760048036038101906102129190611046565b610b87565b005b34801561022557600080fd5b50610240600480360381019061023b9190611147565b610da8565b60405161024d919061125b565b60405180910390f35b600460008154809291906102699061157b565b9190505550600260008154809291906102819061157b565b919050555060003390506000819080600181540180825580915050600190039060005260206000200160009091909190916101000a81548173ffffffffffffffffffffffffffffffffffffffff021916908373ffffffffffffffffffffffffffffffffffffffff1602179055506040518060c0016040528060025481526020018273ffffffffffffffffffffffffffffffffffffffff16815260200186815260200185815260200184815260200183815250600660008373ffffffffffffffffffffffffffffffffffffffff1673ffffffffffffffffffffffffffffffffffffffff1681526020019081526020016000206000820151816000015560208201518160010160006101000a81548173ffffffffffffffffffffffffffffffffffffffff021916908373ffffffffffffffffffffffffffffffffffffffff16021790555060408201518160020190805190602001906103df929190610de7565b5060608201518160030190805190602001906103fc929190610de7565b506080820151816004019080519060200190610419929190610de7565b5060a0820151816005019080519060200190610436929190610de7565b509050505050505050565b606060018054806020026020016040519081016040528092919081815260200182805480156104c557602002820191906000526020600020905b8160009054906101000a900473ffffffffffffffffffffffffffffffffffffffff1673ffffffffffffffffffffffffffffffffffffffff168152602001906001019080831161047b575b5050505050905090565b60076020528060005260406000206000915090508060000154908060010160009054906101000a900473ffffffffffffffffffffffffffffffffffffffff169080600201805461051e90611518565b80601f016020809104026020016040519081016040528092919081815260200182805461054a90611518565b80156105975780601f1061056c57610100808354040283529160200191610597565b820191906000526020600020905b81548152906001019060200180831161057a57829003601f168201915b5050505050908060030180546105ac90611518565b80601f01602080910402602001604051908101604052809291908181526020018280546105d890611518565b80156106255780601f106105fa57610100808354040283529160200191610625565b820191906000526020600020905b81548152906001019060200180831161060857829003601f168201915b50505050509080600401805461063a90611518565b80601f016020809104026020016040519081016040528092919081815260200182805461066690611518565b80156106b35780601f10610688576101008083540402835291602001916106b3565b820191906000526020600020905b81548152906001019060200180831161069657829003601f168201915b5050505050908060050180546106c890611518565b80601f01602080910402602001604051908101604052809291908181526020018280546106f490611518565b80156107415780601f1061071657610100808354040283529160200191610741565b820191906000526020600020905b81548152906001019060200180831161072457829003601f168201915b50505050509080600601805461075690611518565b80601f016020809104026020016040519081016040528092919081815260200182805461078290611518565b80156107cf5780601f106107a4576101008083540402835291602001916107cf565b820191906000526020600020905b8154815290600101906020018083116107b257829003601f168201915b5050505050908060070154905088565b600181815481106107ef57600080fd5b906000526020600020016000915054906101000a900473ffffffffffffffffffffffffffffffffffffffff1681565b60066020528060005260406000206000915090508060000154908060010160009054906101000a900473ffffffffffffffffffffffffffffffffffffffff169080600201805461086d90611518565b80601f016020809104026020016040519081016040528092919081815260200182805461089990611518565b80156108e65780601f106108bb576101008083540402835291602001916108e6565b820191906000526020600020905b8154815290600101906020018083116108c957829003601f168201915b5050505050908060030180546108fb90611518565b80601f016020809104026020016040519081016040528092919081815260200182805461092790611518565b80156109745780601f1061094957610100808354040283529160200191610974565b820191906000526020600020905b81548152906001019060200180831161095757829003601f168201915b50505050509080600401805461098990611518565b80601f01602080910402602001604051908101604052809291908181526020018280546109b590611518565b8015610a025780601f106109d757610100808354040283529160200191610a02565b820191906000526020600020905b8154815290600101906020018083116109e557829003601f168201915b505050505090806005018054610a1790611518565b80601f0160208091040260200160405190810160405280929190818152602001828054610a4390611518565b8015610a905780601f10610a6557610100808354040283529160200191610a90565b820191906000526020600020905b815481529060010190602001808311610a7357829003601f168201915b5050505050905086565b600080600660008473ffffffffffffffffffffffffffffffffffffffff1673ffffffffffffffffffffffffffffffffffffffff168152602001908152602001600020600001541115610aef5760019050610af4565b600090505b919050565b60606000805480602002602001604051908101604052809291908181526020018280548015610b7d57602002820191906000526020600020905b8160009054906101000a900473ffffffffffffffffffffffffffffffffffffffff1673ffffffffffffffffffffffffffffffffffffffff1681526020019060010190808311610b33575b5050505050905090565b60056000815480929190610b9a9061157b565b919050555060036000815480929190610bb29061157b565b919050555060003390506001819080600181540180825580915050600190039060005260206000200160009091909190916101000a81548173ffffffffffffffffffffffffffffffffffffffff021916908373ffffffffffffffffffffffffffffffffffffffff16021790555060405180610100016040528060035481526020018273ffffffffffffffffffffffffffffffffffffffff16815260200188815260200187815260200186815260200185815260200184815260200183815250600760008373ffffffffffffffffffffffffffffffffffffffff1673ffffffffffffffffffffffffffffffffffffffff1681526020019081526020016000206000820151816000015560208201518160010160006101000a81548173ffffffffffffffffffffffffffffffffffffffff021916908373ffffffffffffffffffffffffffffffffffffffff1602179055506040820151816002019080519060200190610d1d929190610de7565b506060820151816003019080519060200190610d3a929190610de7565b506080820151816004019080519060200190610d57929190610de7565b5060a0820151816005019080519060200190610d74929190610de7565b5060c0820151816006019080519060200190610d91929190610de7565b5060e0820151816007015590505050505050505050565b60008181548110610db857600080fd5b906000526020600020016000915054906101000a900473ffffffffffffffffffffffffffffffffffffffff1681565b828054610df390611518565b90600052602060002090601f016020900481019282610e155760008555610e5c565b82601f10610e2e57805160ff1916838001178555610e5c565b82800160010185558215610e5c579182015b82811115610e5b578251825591602001919060010190610e40565b5b509050610e699190610e6d565b5090565b5b80821115610e86576000816000905550600101610e6e565b5090565b6000610e9d610e98846113f6565b6113d1565b905082815260208101848484011115610eb557600080fd5b610ec08482856114d6565b509392505050565b600081359050610ed781611662565b92915050565b600081359050610eec81611679565b92915050565b600082601f830112610f0357600080fd5b8135610f13848260208601610e8a565b91505092915050565b600081359050610f2b81611690565b92915050565b600060208284031215610f4357600080fd5b6000610f5184828501610ec8565b91505092915050565b600060208284031215610f6c57600080fd5b6000610f7a84828501610edd565b91505092915050565b60008060008060808587031215610f9957600080fd5b600085013567ffffffffffffffff811115610fb357600080fd5b610fbf87828801610ef2565b945050602085013567ffffffffffffffff811115610fdc57600080fd5b610fe887828801610ef2565b935050604085013567ffffffffffffffff81111561100557600080fd5b61101187828801610ef2565b925050606085013567ffffffffffffffff81111561102e57600080fd5b61103a87828801610ef2565b91505092959194509250565b60008060008060008060c0878903121561105f57600080fd5b600087013567ffffffffffffffff81111561107957600080fd5b61108589828a01610ef2565b965050602087013567ffffffffffffffff8111156110a257600080fd5b6110ae89828a01610ef2565b955050604087013567ffffffffffffffff8111156110cb57600080fd5b6110d789828a01610ef2565b945050606087013567ffffffffffffffff8111156110f457600080fd5b61110089828a01610ef2565b935050608087013567ffffffffffffffff81111561111d57600080fd5b61112989828a01610ef2565b92505060a061113a89828a01610f1c565b9150509295509295509295565b60006020828403121561115957600080fd5b600061116784828501610f1c565b91505092915050565b600061117c8383611188565b60208301905092915050565b6111918161148e565b82525050565b6111a08161148e565b82525050565b60006111b182611437565b6111bb818561145a565b93506111c683611427565b8060005b838110156111f75781516111de8882611170565b97506111e98361144d565b9250506001810190506111ca565b5085935050505092915050565b61120d816114a0565b82525050565b600061121e82611442565b611228818561146b565b93506112388185602086016114e5565b61124181611651565b840191505092915050565b611255816114cc565b82525050565b60006020820190506112706000830184611197565b92915050565b6000602082019050818103600083015261129081846111a6565b905092915050565b60006020820190506112ad6000830184611204565b92915050565b600060c0820190506112c8600083018961124c565b6112d56020830188611197565b81810360408301526112e78187611213565b905081810360608301526112fb8186611213565b9050818103608083015261130f8185611213565b905081810360a08301526113238184611213565b9050979650505050505050565b600061010082019050611346600083018b61124c565b611353602083018a611197565b81810360408301526113658189611213565b905081810360608301526113798188611213565b9050818103608083015261138d8187611213565b905081810360a08301526113a18186611213565b905081810360c08301526113b58185611213565b90506113c460e083018461124c565b9998505050505050505050565b60006113db6113ec565b90506113e7828261154a565b919050565b6000604051905090565b600067ffffffffffffffff82111561141157611410611622565b5b61141a82611651565b9050602081019050919050565b6000819050602082019050919050565b600081519050919050565b600081519050919050565b6000602082019050919050565b600082825260208201905092915050565b600082825260208201905092915050565b6000611487826114ac565b9050919050565b6000611499826114ac565b9050919050565b60008115159050919050565b600073ffffffffffffffffffffffffffffffffffffffff82169050919050565b6000819050919050565b82818337600083830152505050565b60005b838110156115035780820151818401526020810190506114e8565b83811115611512576000848401525b50505050565b6000600282049050600182168061153057607f821691505b60208210811415611544576115436115f3565b5b50919050565b61155382611651565b810181811067ffffffffffffffff8211171561157257611571611622565b5b80604052505050565b6000611586826114cc565b91507fffffffffffffffffffffffffffffffffffffffffffffffffffffffffffffffff8214156115b9576115b86115c4565b5b600182019050919050565b7f4e487b7100000000000000000000000000000000000000000000000000000000600052601160045260246000fd5b7f4e487b7100000000000000000000000000000000000000000000000000000000600052602260045260246000fd5b7f4e487b7100000000000000000000000000000000000000000000000000000000600052604160045260246000fd5b6000601f19601f8301169050919050565b61166b8161147c565b811461167657600080fd5b50565b6116828161148e565b811461168d57600080fd5b50565b611699816114cc565b81146116a457600080fd5b5056fea2646970667358221220fbbd1583e2d2d9c32b25992b91eb170fec8aa552952f96eb8a498bd02183259064736f6c63430008020033",
  "immutableReferences": {},
  "source": "// SPDX-License-Identifier: GPL-3.0\npragma solidity >=0.7.0 <0.9.0;\n\ncontract Model{\n    // structure for Users\n    struct User{\n        uint id;\n        address payable Address;\n        string name;\n        string location;\n        string email;\n        string phone;\n    }\n\n\n    // structure for Service Provider\n    struct Service_Provider{\n        uint id;\n        address payable Address;\n        string name;\n        string location;\n        string service;\n        string phone;\n        string email;\n        uint charges;\n    }\n\n\n    address payable[] public  user_Addresses;\n    address payable[] public sp_Addresses;\n    uint usersId = 0;\n    uint serviceProviderId = 0;\n    uint usersCount = 0;\n    uint serviceProviderCount = 0;\n\n    mapping(address => User) public Users;\n    mapping(address => Service_Provider) public ServiceProviders;\n\n    // Function to add Users\n    function addUser(string memory name, string memory location, string memory email, string memory phone) public payable{\n        usersCount++;\n        usersId++;\n        address payable Address = payable(msg.sender);\n        user_Addresses.push(Address);\n        Users[Address] = User(usersId, Address, name, location,email,phone);\n    }\n\n    // Function to return the array of addresses of Users\n    function getAllUsers() public view returns (address payable [] memory){\n        return user_Addresses;\n    }\n\n    // to check if user exist already or not.\n    function userExist(address payable Address) public view returns (bool){\n        if (Users[Address].id>0){\n            return true;\n        }\n        else\n            return false;\n    }\n\n    // Function to add service providers\n    function addServiceProvider(string memory name, string memory location, string memory service, string memory email, string memory phone, uint  charges ) public payable{\n        serviceProviderCount++;\n        serviceProviderId++;\n        address payable Address = payable(msg.sender);\n        sp_Addresses.push(Address);\n        ServiceProviders[Address] = Service_Provider(serviceProviderId, Address, name, location,service, email,phone, charges);\n    }\n\n    //function to return the array of addresses of Service Providers\n    function getAllServiceProviders() public view returns (address payable [] memory){\n        return sp_Addresses;\n    }\n}",
  "sourcePath": "/home/sajal/Desktop/SPE-final-project/contracts/Model.sol",
  "compiler": {
    "name": "solc",
    "version": "0.8.2+commit.661d1103.Emscripten.clang"
  },
  "schemaVersion": "3.3.4",
  "updatedAt": "2021-04-04T20:56:58.964Z",
  "networkType": "ethereum",
  "devdoc": {
    "kind": "dev",
    "methods": {},
    "version": 1
  },
  "userdoc": {
    "kind": "user",
    "methods": {},
    "version": 1
  }
}