{
  "contractName": "Model",
  "abi": [
    {
      "inputs": [],
      "stateMutability": "nonpayable",
      "type": "constructor"
    },
    {
      "inputs": [
        {
          "internalType": "address",
          "name": "",
          "type": "address"
        }
      ],
      "name": "ServiceProviders",
      "outputs": [
        {
          "internalType": "uint256",
          "name": "id",
          "type": "uint256"
        },
        {
          "internalType": "address payable",
          "name": "Address",
          "type": "address"
        },
        {
          "internalType": "string",
          "name": "name",
          "type": "string"
        },
        {
          "internalType": "string",
          "name": "city",
          "type": "string"
        },
        {
          "internalType": "string",
          "name": "phone",
          "type": "string"
        },
        {
          "internalType": "string",
          "name": "email",
          "type": "string"
        },
        {
          "internalType": "uint256",
          "name": "charges",
          "type": "uint256"
        },
        {
          "internalType": "uint256",
          "name": "service_type",
          "type": "uint256"
        },
        {
          "internalType": "bool",
          "name": "status",
          "type": "bool"
        }
      ],
      "stateMutability": "view",
      "type": "function",
      "constant": true
    },
    {
      "inputs": [
        {
          "internalType": "address",
          "name": "",
          "type": "address"
        }
      ],
      "name": "Users",
      "outputs": [
        {
          "internalType": "uint256",
          "name": "id",
          "type": "uint256"
        },
        {
          "internalType": "address payable",
          "name": "Address",
          "type": "address"
        },
        {
          "internalType": "string",
          "name": "home_address",
          "type": "string"
        },
        {
          "internalType": "address payable",
          "name": "sp",
          "type": "address"
        },
        {
          "internalType": "string",
          "name": "name",
          "type": "string"
        },
        {
          "internalType": "string",
          "name": "city",
          "type": "string"
        },
        {
          "internalType": "string",
          "name": "email",
          "type": "string"
        },
        {
          "internalType": "string",
          "name": "phone",
          "type": "string"
        },
        {
          "internalType": "bool",
          "name": "serv",
          "type": "bool"
        },
        {
          "internalType": "bool",
          "name": "ongiong_service",
          "type": "bool"
        },
        {
          "internalType": "bool",
          "name": "messagealert",
          "type": "bool"
        }
      ],
      "stateMutability": "view",
      "type": "function",
      "constant": true
    },
    {
      "inputs": [],
      "name": "admin",
      "outputs": [
        {
          "internalType": "address payable",
          "name": "",
          "type": "address"
        }
      ],
      "stateMutability": "view",
      "type": "function",
      "constant": true
    },
    {
      "inputs": [
        {
          "internalType": "uint256",
          "name": "",
          "type": "uint256"
        }
      ],
      "name": "service_providers",
      "outputs": [
        {
          "internalType": "address payable",
          "name": "",
          "type": "address"
        }
      ],
      "stateMutability": "view",
      "type": "function",
      "constant": true
    },
    {
      "inputs": [
        {
          "internalType": "uint256",
          "name": "",
          "type": "uint256"
        }
      ],
      "name": "sp_Addresses",
      "outputs": [
        {
          "internalType": "address payable",
          "name": "",
          "type": "address"
        }
      ],
      "stateMutability": "view",
      "type": "function",
      "constant": true
    },
    {
      "inputs": [
        {
          "internalType": "uint256",
          "name": "",
          "type": "uint256"
        }
      ],
      "name": "user_Addresses",
      "outputs": [
        {
          "internalType": "address payable",
          "name": "",
          "type": "address"
        }
      ],
      "stateMutability": "view",
      "type": "function",
      "constant": true
    },
    {
      "inputs": [
        {
          "internalType": "string",
          "name": "name",
          "type": "string"
        },
        {
          "internalType": "string",
          "name": "home_address",
          "type": "string"
        },
        {
          "internalType": "string",
          "name": "city",
          "type": "string"
        },
        {
          "internalType": "string",
          "name": "email",
          "type": "string"
        },
        {
          "internalType": "string",
          "name": "phone",
          "type": "string"
        }
      ],
      "name": "addUser",
      "outputs": [],
      "stateMutability": "payable",
      "type": "function",
      "payable": true
    },
    {
      "inputs": [],
      "name": "getAllUsers",
      "outputs": [
        {
          "internalType": "address payable[]",
          "name": "",
          "type": "address[]"
        }
      ],
      "stateMutability": "view",
      "type": "function",
      "constant": true
    },
    {
      "inputs": [
        {
          "internalType": "address payable",
          "name": "Address",
          "type": "address"
        }
      ],
      "name": "userExist",
      "outputs": [
        {
          "internalType": "bool",
          "name": "",
          "type": "bool"
        }
      ],
      "stateMutability": "view",
      "type": "function",
      "constant": true
    },
    {
      "inputs": [
        {
          "internalType": "address payable",
          "name": "Address",
          "type": "address"
        }
      ],
      "name": "serviceProviderExist",
      "outputs": [
        {
          "internalType": "bool",
          "name": "",
          "type": "bool"
        }
      ],
      "stateMutability": "view",
      "type": "function",
      "constant": true
    },
    {
      "inputs": [
        {
          "internalType": "string",
          "name": "name",
          "type": "string"
        },
        {
          "internalType": "string",
          "name": "city",
          "type": "string"
        },
        {
          "internalType": "string",
          "name": "email",
          "type": "string"
        },
        {
          "internalType": "string",
          "name": "phone",
          "type": "string"
        },
        {
          "internalType": "uint256",
          "name": "charges",
          "type": "uint256"
        },
        {
          "internalType": "uint256",
          "name": "service_type",
          "type": "uint256"
        }
      ],
      "name": "addServiceProvider",
      "outputs": [],
      "stateMutability": "payable",
      "type": "function",
      "payable": true
    },
    {
      "inputs": [
        {
          "internalType": "uint256",
          "name": "service_type",
          "type": "uint256"
        }
      ],
      "name": "render_List",
      "outputs": [],
      "stateMutability": "nonpayable",
      "type": "function"
    },
    {
      "inputs": [],
      "name": "return_rendered_List",
      "outputs": [
        {
          "internalType": "address payable[]",
          "name": "",
          "type": "address[]"
        }
      ],
      "stateMutability": "view",
      "type": "function",
      "constant": true
    },
    {
      "inputs": [],
      "name": "getAllServiceProviders",
      "outputs": [
        {
          "internalType": "address payable[]",
          "name": "",
          "type": "address[]"
        }
      ],
      "stateMutability": "view",
      "type": "function",
      "constant": true
    },
    {
      "inputs": [
        {
          "internalType": "address payable",
          "name": "sp",
          "type": "address"
        }
      ],
      "name": "requestService",
      "outputs": [],
      "stateMutability": "payable",
      "type": "function",
      "payable": true
    },
    {
      "inputs": [],
      "name": "servicecompleted",
      "outputs": [],
      "stateMutability": "payable",
      "type": "function",
      "payable": true
    },
    {
      "inputs": [
        {
          "internalType": "address payable",
          "name": "user",
          "type": "address"
        }
      ],
      "name": "service_choice",
      "outputs": [],
      "stateMutability": "payable",
      "type": "function",
      "payable": true
    },
    {
      "inputs": [],
      "name": "service_off",
      "outputs": [],
      "stateMutability": "payable",
      "type": "function",
      "payable": true
    },
    {
      "inputs": [
        {
          "internalType": "address payable",
          "name": "user",
          "type": "address"
        },
        {
          "internalType": "address payable",
          "name": "sp",
          "type": "address"
        }
      ],
      "name": "getBalance",
      "outputs": [],
      "stateMutability": "payable",
      "type": "function",
      "payable": true
    },
    {
      "inputs": [],
      "name": "eth",
      "outputs": [
        {
          "internalType": "uint256",
          "name": "",
          "type": "uint256"
        }
      ],
      "stateMutability": "view",
      "type": "function",
      "constant": true
    },
    {
      "inputs": [
        {
          "internalType": "address payable",
          "name": "sp",
          "type": "address"
        }
      ],
      "name": "return_my_users",
      "outputs": [
        {
          "internalType": "address payable[]",
          "name": "",
          "type": "address[]"
        }
      ],
      "stateMutability": "view",
      "type": "function",
      "constant": true
    }
  ],
  "bytecode": "0x608060405260006004556000600555600060065560006007553480156200002557600080fd5b506000600681905550336000806101000a81548173ffffffffffffffffffffffffffffffffffffffff021916908373ffffffffffffffffffffffffffffffffffffffff160217905550600060066000815480929190620000859062002649565b9190505550600073dcad3a6d3569df655070ded06cb7a1b2ccd1d3af90506002819080600181540180825580915050600190039060005260206000200160009091909190916101000a81548173ffffffffffffffffffffffffffffffffffffffff021916908373ffffffffffffffffffffffffffffffffffffffff16021790555060405180610160016040528060065481526020018273ffffffffffffffffffffffffffffffffffffffff1681526020016040518060400160405280600481526020017f414243440000000000000000000000000000000000000000000000000000000081525081526020018373ffffffffffffffffffffffffffffffffffffffff1681526020016040518060400160405280600881526020017f426875776e65736800000000000000000000000000000000000000000000000081525081526020016040518060400160405280600981526020017f42616e67616c6f7265000000000000000000000000000000000000000000000081525081526020016040518060400160405280601381526020017f626875776e6573682e31323640676d2e636f6d0000000000000000000000000081525081526020016040518060400160405280600681526020017f3236333133390000000000000000000000000000000000000000000000000000815250815260200160001515815260200160001515815260200160001515815250600860008373ffffffffffffffffffffffffffffffffffffffff1673ffffffffffffffffffffffffffffffffffffffff1681526020019081526020016000206000820151816000015560208201518160010160006101000a81548173ffffffffffffffffffffffffffffffffffffffff021916908373ffffffffffffffffffffffffffffffffffffffff160217905550604082015181600201908051906020019062000340929190620024ca565b5060608201518160030160006101000a81548173ffffffffffffffffffffffffffffffffffffffff021916908373ffffffffffffffffffffffffffffffffffffffff1602179055506080820151816004019080519060200190620003a6929190620024ca565b5060a0820151816005019080519060200190620003c5929190620024ca565b5060c0820151816006019080519060200190620003e4929190620024ca565b5060e082015181600701908051906020019062000403929190620024ca565b506101008201518160080160006101000a81548160ff0219169083151502179055506101208201518160080160016101000a81548160ff0219169083151502179055506101408201518160080160026101000a81548160ff02191690831515021790555090505073626c16139e73fa877ec4b2bbad02c824c8e95bc090506002819080600181540180825580915050600190039060005260206000200160009091909190916101000a81548173ffffffffffffffffffffffffffffffffffffffff021916908373ffffffffffffffffffffffffffffffffffffffff16021790555060066000815480929190620004f99062002649565b919050555060405180610160016040528060065481526020018273ffffffffffffffffffffffffffffffffffffffff1681526020016040518060400160405280600481526020017f414243440000000000000000000000000000000000000000000000000000000081525081526020018373ffffffffffffffffffffffffffffffffffffffff1681526020016040518060400160405280600881526020017f426875776e65736800000000000000000000000000000000000000000000000081525081526020016040518060400160405280600981526020017f42616e67616c6f7265000000000000000000000000000000000000000000000081525081526020016040518060400160405280601381526020017f626875776e6573682e31323640676d2e636f6d0000000000000000000000000081525081526020016040518060400160405280600681526020017f3236333133390000000000000000000000000000000000000000000000000000815250815260200160001515815260200160001515815260200160001515815250600860008373ffffffffffffffffffffffffffffffffffffffff1673ffffffffffffffffffffffffffffffffffffffff1681526020019081526020016000206000820151816000015560208201518160010160006101000a81548173ffffffffffffffffffffffffffffffffffffffff021916908373ffffffffffffffffffffffffffffffffffffffff160217905550604082015181600201908051906020019062000738929190620024ca565b5060608201518160030160006101000a81548173ffffffffffffffffffffffffffffffffffffffff021916908373ffffffffffffffffffffffffffffffffffffffff16021790555060808201518160040190805190602001906200079e929190620024ca565b5060a0820151816005019080519060200190620007bd929190620024ca565b5060c0820151816006019080519060200190620007dc929190620024ca565b5060e0820151816007019080519060200190620007fb929190620024ca565b506101008201518160080160006101000a81548160ff0219169083151502179055506101208201518160080160016101000a81548160ff0219169083151502179055506101408201518160080160026101000a81548160ff0219169083151502179055509050507355dbd85eb48a426a9075c059fb719ca843a1e8ee90506002819080600181540180825580915050600190039060005260206000200160009091909190916101000a81548173ffffffffffffffffffffffffffffffffffffffff021916908373ffffffffffffffffffffffffffffffffffffffff16021790555060066000815480929190620008f19062002649565b919050555060405180610160016040528060065481526020018273ffffffffffffffffffffffffffffffffffffffff1681526020016040518060400160405280600481526020017f414243440000000000000000000000000000000000000000000000000000000081525081526020018373ffffffffffffffffffffffffffffffffffffffff1681526020016040518060400160405280600881526020017f426875776e65736800000000000000000000000000000000000000000000000081525081526020016040518060400160405280600981526020017f42616e67616c6f7265000000000000000000000000000000000000000000000081525081526020016040518060400160405280601381526020017f626875776e6573682e31323640676d2e636f6d0000000000000000000000000081525081526020016040518060400160405280600681526020017f3236333133390000000000000000000000000000000000000000000000000000815250815260200160001515815260200160001515815260200160001515815250600860008373ffffffffffffffffffffffffffffffffffffffff1673ffffffffffffffffffffffffffffffffffffffff1681526020019081526020016000206000820151816000015560208201518160010160006101000a81548173ffffffffffffffffffffffffffffffffffffffff021916908373ffffffffffffffffffffffffffffffffffffffff160217905550604082015181600201908051906020019062000b30929190620024ca565b5060608201518160030160006101000a81548173ffffffffffffffffffffffffffffffffffffffff021916908373ffffffffffffffffffffffffffffffffffffffff160217905550608082015181600401908051906020019062000b96929190620024ca565b5060a082015181600501908051906020019062000bb5929190620024ca565b5060c082015181600601908051906020019062000bd4929190620024ca565b5060e082015181600701908051906020019062000bf3929190620024ca565b506101008201518160080160006101000a81548160ff0219169083151502179055506101208201518160080160016101000a81548160ff0219169083151502179055506101408201518160080160026101000a81548160ff021916908315150217905550905050730bbc5d5d3d89b3a213c420a9630c72c0966c8b7190506002819080600181540180825580915050600190039060005260206000200160009091909190916101000a81548173ffffffffffffffffffffffffffffffffffffffff021916908373ffffffffffffffffffffffffffffffffffffffff1602179055506006600081548092919062000ce99062002649565b919050555060405180610160016040528060065481526020018273ffffffffffffffffffffffffffffffffffffffff1681526020016040518060400160405280600481526020017f414243440000000000000000000000000000000000000000000000000000000081525081526020018373ffffffffffffffffffffffffffffffffffffffff1681526020016040518060400160405280600881526020017f426875776e65736800000000000000000000000000000000000000000000000081525081526020016040518060400160405280600981526020017f42616e67616c6f7265000000000000000000000000000000000000000000000081525081526020016040518060400160405280601381526020017f626875776e6573682e31323640676d2e636f6d0000000000000000000000000081525081526020016040518060400160405280600681526020017f3236333133390000000000000000000000000000000000000000000000000000815250815260200160001515815260200160001515815260200160001515815250600860008373ffffffffffffffffffffffffffffffffffffffff1673ffffffffffffffffffffffffffffffffffffffff1681526020019081526020016000206000820151816000015560208201518160010160006101000a81548173ffffffffffffffffffffffffffffffffffffffff021916908373ffffffffffffffffffffffffffffffffffffffff160217905550604082015181600201908051906020019062000f28929190620024ca565b5060608201518160030160006101000a81548173ffffffffffffffffffffffffffffffffffffffff021916908373ffffffffffffffffffffffffffffffffffffffff160217905550608082015181600401908051906020019062000f8e929190620024ca565b5060a082015181600501908051906020019062000fad929190620024ca565b5060c082015181600601908051906020019062000fcc929190620024ca565b5060e082015181600701908051906020019062000feb929190620024ca565b506101008201518160080160006101000a81548160ff0219169083151502179055506101208201518160080160016101000a81548160ff0219169083151502179055506101408201518160080160026101000a81548160ff02191690831515021790555090505073c6d640ce6a7431be86eda5af05873662aa560d4090506002819080600181540180825580915050600190039060005260206000200160009091909190916101000a81548173ffffffffffffffffffffffffffffffffffffffff021916908373ffffffffffffffffffffffffffffffffffffffff16021790555060066000815480929190620010e19062002649565b919050555060405180610160016040528060065481526020018273ffffffffffffffffffffffffffffffffffffffff1681526020016040518060400160405280600481526020017f414243440000000000000000000000000000000000000000000000000000000081525081526020018373ffffffffffffffffffffffffffffffffffffffff1681526020016040518060400160405280600881526020017f426875776e65736800000000000000000000000000000000000000000000000081525081526020016040518060400160405280600981526020017f42616e67616c6f7265000000000000000000000000000000000000000000000081525081526020016040518060400160405280601381526020017f626875776e6573682e31323640676d2e636f6d0000000000000000000000000081525081526020016040518060400160405280600681526020017f3236333133390000000000000000000000000000000000000000000000000000815250815260200160001515815260200160001515815260200160001515815250600860008373ffffffffffffffffffffffffffffffffffffffff1673ffffffffffffffffffffffffffffffffffffffff1681526020019081526020016000206000820151816000015560208201518160010160006101000a81548173ffffffffffffffffffffffffffffffffffffffff021916908373ffffffffffffffffffffffffffffffffffffffff160217905550604082015181600201908051906020019062001320929190620024ca565b5060608201518160030160006101000a81548173ffffffffffffffffffffffffffffffffffffffff021916908373ffffffffffffffffffffffffffffffffffffffff160217905550608082015181600401908051906020019062001386929190620024ca565b5060a0820151816005019080519060200190620013a5929190620024ca565b5060c0820151816006019080519060200190620013c4929190620024ca565b5060e0820151816007019080519060200190620013e3929190620024ca565b506101008201518160080160006101000a81548160ff0219169083151502179055506101208201518160080160016101000a81548160ff0219169083151502179055506101408201518160080160026101000a81548160ff02191690831515021790555090505060008067ffffffffffffffff8111156200148d577f4e487b7100000000000000000000000000000000000000000000000000000000600052604160045260246000fd5b604051908082528060200260200182016040528015620014bc5781602001602082028036833780820191505090505b509050600060078190555060076000815480929190620014dc9062002649565b9190505550735d2cf9b829ea3d1d428aee131909d2b63921eeac91506003829080600181540180825580915050600190039060005260206000200160009091909190916101000a81548173ffffffffffffffffffffffffffffffffffffffff021916908373ffffffffffffffffffffffffffffffffffffffff16021790555060405180610140016040528060075481526020018373ffffffffffffffffffffffffffffffffffffffff1681526020016040518060400160405280600b81526020017f53616a616c2053696e676800000000000000000000000000000000000000000081525081526020016040518060400160405280600981526020017f42616e67616c6f7265000000000000000000000000000000000000000000000081525081526020018281526020016040518060400160405280601781526020017f73616a616c2e73696e6768406f75746c6f6f6b2e636f6d00000000000000000081525081526020016040518060400160405280600d81526020017f2b3931373537393234353933390000000000000000000000000000000000000081525081526020016347868c0081526020016001815260200160011515815250600960008473ffffffffffffffffffffffffffffffffffffffff1673ffffffffffffffffffffffffffffffffffffffff1681526020019081526020016000206000820151816000015560208201518160010160006101000a81548173ffffffffffffffffffffffffffffffffffffffff021916908373ffffffffffffffffffffffffffffffffffffffff160217905550604082015181600201908051906020019062001743929190620024ca565b50606082015181600301908051906020019062001762929190620024ca565b506080820151816004019080519060200190620017819291906200255b565b5060a0820151816005019080519060200190620017a0929190620024ca565b5060c0820151816006019080519060200190620017bf929190620024ca565b5060e0820151816007015561010082015181600801556101208201518160090160006101000a81548160ff021916908315150217905550905050600760008154809291906200180e9062002649565b9190505550730f341a3ffd5af4f2112a201f109a482445fb97ae91506003829080600181540180825580915050600190039060005260206000200160009091909190916101000a81548173ffffffffffffffffffffffffffffffffffffffff021916908373ffffffffffffffffffffffffffffffffffffffff16021790555060405180610140016040528060075481526020018373ffffffffffffffffffffffffffffffffffffffff1681526020016040518060400160405280600a81526020017f446164612053696e67680000000000000000000000000000000000000000000081525081526020016040518060400160405280600981526020017f42616e67616c6f7265000000000000000000000000000000000000000000000081525081526020018281526020016040518060400160405280601581526020017f646164612e73696e6768406f75746c6f6f6b2e696e000000000000000000000081525081526020016040518060400160405280600d81526020017f2b3931393638373534353636370000000000000000000000000000000000000081525081526020016347868c0081526020016002815260200160011515815250600960008473ffffffffffffffffffffffffffffffffffffffff1673ffffffffffffffffffffffffffffffffffffffff1681526020019081526020016000206000820151816000015560208201518160010160006101000a81548173ffffffffffffffffffffffffffffffffffffffff021916908373ffffffffffffffffffffffffffffffffffffffff160217905550604082015181600201908051906020019062001a75929190620024ca565b50606082015181600301908051906020019062001a94929190620024ca565b50608082015181600401908051906020019062001ab39291906200255b565b5060a082015181600501908051906020019062001ad2929190620024ca565b5060c082015181600601908051906020019062001af1929190620024ca565b5060e0820151816007015561010082015181600801556101208201518160090160006101000a81548160ff0219169083151502179055509050506007600081548092919062001b409062002649565b919050555073110a50271a65ee265a4b4457ac412c76c979167891506003829080600181540180825580915050600190039060005260206000200160009091909190916101000a81548173ffffffffffffffffffffffffffffffffffffffff021916908373ffffffffffffffffffffffffffffffffffffffff16021790555060405180610140016040528060075481526020018373ffffffffffffffffffffffffffffffffffffffff1681526020016040518060400160405280600d81526020017f536175726162682053696e67680000000000000000000000000000000000000081525081526020016040518060400160405280600981526020017f42616e67616c6f7265000000000000000000000000000000000000000000000081525081526020018281526020016040518060400160405280601381526020017f73617572616268406f75746c6f6f6b2e636f6d0000000000000000000000000081525081526020016040518060400160405280600d81526020017f2b3931383930393532343030390000000000000000000000000000000000000081525081526020016347868c0081526020016002815260200160011515815250600960008473ffffffffffffffffffffffffffffffffffffffff1673ffffffffffffffffffffffffffffffffffffffff1681526020019081526020016000206000820151816000015560208201518160010160006101000a81548173ffffffffffffffffffffffffffffffffffffffff021916908373ffffffffffffffffffffffffffffffffffffffff160217905550604082015181600201908051906020019062001da7929190620024ca565b50606082015181600301908051906020019062001dc6929190620024ca565b50608082015181600401908051906020019062001de59291906200255b565b5060a082015181600501908051906020019062001e04929190620024ca565b5060c082015181600601908051906020019062001e23929190620024ca565b5060e0820151816007015561010082015181600801556101208201518160090160006101000a81548160ff0219169083151502179055509050506007600081548092919062001e729062002649565b919050555073d3b7f2a8e0eda1b2c6a0b49c6c79ca9a3996c2aa91506003829080600181540180825580915050600190039060005260206000200160009091909190916101000a81548173ffffffffffffffffffffffffffffffffffffffff021916908373ffffffffffffffffffffffffffffffffffffffff16021790555060405180610140016040528060075481526020018373ffffffffffffffffffffffffffffffffffffffff1681526020016040518060400160405280600c81526020017f416e6a616e20536865747479000000000000000000000000000000000000000081525081526020016040518060400160405280600981526020017f42616e67616c6f7265000000000000000000000000000000000000000000000081525081526020018281526020016040518060400160405280601281526020017f616e6a616e4069696974622e6f72672e696e000000000000000000000000000081525081526020016040518060400160405280600d81526020017f2b3931393431313130373336300000000000000000000000000000000000000081525081526020016347868c0081526020016002815260200160011515815250600960008473ffffffffffffffffffffffffffffffffffffffff1673ffffffffffffffffffffffffffffffffffffffff1681526020019081526020016000206000820151816000015560208201518160010160006101000a81548173ffffffffffffffffffffffffffffffffffffffff021916908373ffffffffffffffffffffffffffffffffffffffff1602179055506040820151816002019080519060200190620020d9929190620024ca565b506060820151816003019080519060200190620020f8929190620024ca565b506080820151816004019080519060200190620021179291906200255b565b5060a082015181600501908051906020019062002136929190620024ca565b5060c082015181600601908051906020019062002155929190620024ca565b5060e0820151816007015561010082015181600801556101208201518160090160006101000a81548160ff02191690831515021790555090505060076000815480929190620021a49062002649565b919050555073d39cd70f514a0814c2fc59350e11aa0eba2b8ce891506003829080600181540180825580915050600190039060005260206000200160009091909190916101000a81548173ffffffffffffffffffffffffffffffffffffffff021916908373ffffffffffffffffffffffffffffffffffffffff16021790555060405180610140016040528060075481526020018373ffffffffffffffffffffffffffffffffffffffff1681526020016040518060400160405280600c81526020017f446164612044756e67656f6e000000000000000000000000000000000000000081525081526020016040518060400160405280600981526020017f42616e67616c6f7265000000000000000000000000000000000000000000000081525081526020018281526020016040518060400160405280600681526020017f656d61696f6c000000000000000000000000000000000000000000000000000081525081526020016040518060400160405280600981526020017f6f626f666464736661000000000000000000000000000000000000000000000081525081526020016347868c0081526020016002815260200160011515815250600960008473ffffffffffffffffffffffffffffffffffffffff1673ffffffffffffffffffffffffffffffffffffffff1681526020019081526020016000206000820151816000015560208201518160010160006101000a81548173ffffffffffffffffffffffffffffffffffffffff021916908373ffffffffffffffffffffffffffffffffffffffff16021790555060408201518160020190805190602001906200240b929190620024ca565b5060608201518160030190805190602001906200242a929190620024ca565b506080820151816004019080519060200190620024499291906200255b565b5060a082015181600501908051906020019062002468929190620024ca565b5060c082015181600601908051906020019062002487929190620024ca565b5060e0820151816007015561010082015181600801556101208201518160090160006101000a81548160ff021916908315150217905550905050505050620026f5565b828054620024d89062002613565b90600052602060002090601f016020900481019282620024fc576000855562002548565b82601f106200251757805160ff191683800117855562002548565b8280016001018555821562002548579182015b82811115620025475782518255916020019190600101906200252a565b5b509050620025579190620025ea565b5090565b828054828255906000526020600020908101928215620025d7579160200282015b82811115620025d65782518260006101000a81548173ffffffffffffffffffffffffffffffffffffffff021916908373ffffffffffffffffffffffffffffffffffffffff160217905550916020019190600101906200257c565b5b509050620025e69190620025ea565b5090565b5b8082111562002605576000816000905550600101620025eb565b5090565b6000819050919050565b600060028204905060018216806200262c57607f821691505b60208210811415620026435762002642620026c6565b5b50919050565b6000620026568262002609565b91507fffffffffffffffffffffffffffffffffffffffffffffffffffffffffffffffff8214156200268c576200268b62002697565b5b600182019050919050565b7f4e487b7100000000000000000000000000000000000000000000000000000000600052601160045260246000fd5b7f4e487b7100000000000000000000000000000000000000000000000000000000600052602260045260246000fd5b61372d80620027056000396000f3fe60806040526004361061012a5760003560e01c806399b956a0116100ab578063d52e528e1161006f578063d52e528e146103e7578063e02c8dd314610403578063e2842d791461040d578063f234687d14610438578063f46fb1b614610475578063f851a4401461049e5761012a565b806399b956a0146102ee578063ab7e7cf614610335578063b37a3d8214610372578063c29b50bb1461038e578063d4fac45d146103cb5761012a565b806372eb7b60116100f257806372eb7b60146101d9578063757bf8cd1461021e5780637bc9883c146102495780638c7c9e0c146102865780639741edef146102b15761012a565b806304a15d741461012f57806308fb670c1461015a578063159e875d146101645780631d1bea79146101a157806350a1e16a146101bd575b600080fd5b34801561013b57600080fd5b506101446104c9565b6040516101519190613164565b60405180910390f35b610162610557565b005b34801561017057600080fd5b5061018b60048036038101906101869190612df8565b61113e565b6040516101989190613186565b60405180910390f35b6101bb60048036038101906101b69190612f4c565b61119d565b005b6101d760048036038101906101d29190612df8565b611402565b005b3480156101e557600080fd5b5061020060048036038101906101fb9190612dcf565b611620565b6040516102159998979695949392919061328a565b60405180910390f35b34801561022a57600080fd5b506102336118bb565b6040516102409190613164565b60405180910390f35b34801561025557600080fd5b50610270600480360381019061026b9190613035565b611949565b60405161027d9190613149565b60405180910390f35b34801561029257600080fd5b5061029b611988565b6040516102a891906131a1565b60405180910390f35b3480156102bd57600080fd5b506102d860048036038101906102d39190613035565b611990565b6040516102e59190613149565b60405180910390f35b3480156102fa57600080fd5b5061031560048036038101906103109190612dcf565b6119cf565b60405161032c9b9a999897969594939291906131bc565b60405180910390f35b34801561034157600080fd5b5061035c60048036038101906103579190612df8565b611d38565b6040516103699190613186565b60405180910390f35b61038c60048036038101906103879190612e5d565b611d97565b005b34801561039a57600080fd5b506103b560048036038101906103b09190612df8565b61208f565b6040516103c29190613164565b60405180910390f35b6103e560048036038101906103e09190612e21565b61215f565b005b61040160048036038101906103fc9190612df8565b612202565b005b61040b612260565b005b34801561041957600080fd5b506104226128e9565b60405161042f9190613164565b60405180910390f35b34801561044457600080fd5b5061045f600480360381019061045a9190613035565b612977565b60405161046c9190613149565b60405180910390f35b34801561048157600080fd5b5061049c60048036038101906104979190613035565b6129b6565b005b3480156104aa57600080fd5b506104b3612bd7565b6040516104c09190613149565b60405180910390f35b6060600380548060200260200160405190810160405280929190818152602001828054801561054d57602002820191906000526020600020905b8160009054906101000a900473ffffffffffffffffffffffffffffffffffffffff1673ffffffffffffffffffffffffffffffffffffffff1681526020019060010190808311610503575b5050505050905090565b600033905060008060096000600860008673ffffffffffffffffffffffffffffffffffffffff1673ffffffffffffffffffffffffffffffffffffffff16815260200190815260200160002060030160009054906101000a900473ffffffffffffffffffffffffffffffffffffffff1673ffffffffffffffffffffffffffffffffffffffff1673ffffffffffffffffffffffffffffffffffffffff1681526020019081526020016000206004018054905090505b80821015610764578273ffffffffffffffffffffffffffffffffffffffff1660096000600860008773ffffffffffffffffffffffffffffffffffffffff1673ffffffffffffffffffffffffffffffffffffffff16815260200190815260200160002060030160009054906101000a900473ffffffffffffffffffffffffffffffffffffffff1673ffffffffffffffffffffffffffffffffffffffff1673ffffffffffffffffffffffffffffffffffffffff1681526020019081526020016000206004018381548110610705577f4e487b7100000000000000000000000000000000000000000000000000000000600052603260045260246000fd5b9060005260206000200160009054906101000a900473ffffffffffffffffffffffffffffffffffffffff1673ffffffffffffffffffffffffffffffffffffffff16141561075157610764565b818061075c9061359c565b92505061060a565b60096000600860008673ffffffffffffffffffffffffffffffffffffffff1673ffffffffffffffffffffffffffffffffffffffff16815260200190815260200160002060030160009054906101000a900473ffffffffffffffffffffffffffffffffffffffff1673ffffffffffffffffffffffffffffffffffffffff1673ffffffffffffffffffffffffffffffffffffffff168152602001908152602001600020600401805490508214156108c257600860008473ffffffffffffffffffffffffffffffffffffffff1673ffffffffffffffffffffffffffffffffffffffff16815260200190815260200160002060030160009054906101000a900473ffffffffffffffffffffffffffffffffffffffff1673ffffffffffffffffffffffffffffffffffffffff166108fc60009081150290604051600060405180830381858888f193505050501580156108bc573d6000803e3d6000fd5b50611139565b6000606460096000600860008873ffffffffffffffffffffffffffffffffffffffff1673ffffffffffffffffffffffffffffffffffffffff16815260200190815260200160002060030160009054906101000a900473ffffffffffffffffffffffffffffffffffffffff1673ffffffffffffffffffffffffffffffffffffffff1673ffffffffffffffffffffffffffffffffffffffff16815260200190815260200160002060070154605f610977919061340f565b60096000600860008973ffffffffffffffffffffffffffffffffffffffff1673ffffffffffffffffffffffffffffffffffffffff16815260200190815260200160002060030160009054906101000a900473ffffffffffffffffffffffffffffffffffffffff1673ffffffffffffffffffffffffffffffffffffffff1673ffffffffffffffffffffffffffffffffffffffff168152602001908152602001600020600701546064610a28919061340f565b610a329190613469565b610a3c91906133de565b905060008054906101000a900473ffffffffffffffffffffffffffffffffffffffff1673ffffffffffffffffffffffffffffffffffffffff166108fc829081150290604051600060405180830381858888f19350505050158015610aa4573d6000803e3d6000fd5b50600860008573ffffffffffffffffffffffffffffffffffffffff1673ffffffffffffffffffffffffffffffffffffffff16815260200190815260200160002060030160009054906101000a900473ffffffffffffffffffffffffffffffffffffffff1673ffffffffffffffffffffffffffffffffffffffff166108fc606460096000600860008a73ffffffffffffffffffffffffffffffffffffffff1673ffffffffffffffffffffffffffffffffffffffff16815260200190815260200160002060030160009054906101000a900473ffffffffffffffffffffffffffffffffffffffff1673ffffffffffffffffffffffffffffffffffffffff1673ffffffffffffffffffffffffffffffffffffffff16815260200190815260200160002060070154605a610bd4919061340f565b610bde91906133de565b9081150290604051600060405180830381858888f19350505050158015610c09573d6000803e3d6000fd5b5060096000600860008773ffffffffffffffffffffffffffffffffffffffff1673ffffffffffffffffffffffffffffffffffffffff16815260200190815260200160002060030160009054906101000a900473ffffffffffffffffffffffffffffffffffffffff1673ffffffffffffffffffffffffffffffffffffffff1673ffffffffffffffffffffffffffffffffffffffff168152602001908152602001600020600401600183610cbb9190613469565b81548110610cf2577f4e487b7100000000000000000000000000000000000000000000000000000000600052603260045260246000fd5b9060005260206000200160009054906101000a900473ffffffffffffffffffffffffffffffffffffffff1660096000600860008873ffffffffffffffffffffffffffffffffffffffff1673ffffffffffffffffffffffffffffffffffffffff16815260200190815260200160002060030160009054906101000a900473ffffffffffffffffffffffffffffffffffffffff1673ffffffffffffffffffffffffffffffffffffffff1673ffffffffffffffffffffffffffffffffffffffff1681526020019081526020016000206004018481548110610df9577f4e487b7100000000000000000000000000000000000000000000000000000000600052603260045260246000fd5b9060005260206000200160006101000a81548173ffffffffffffffffffffffffffffffffffffffff021916908373ffffffffffffffffffffffffffffffffffffffff1602179055508360096000600860008873ffffffffffffffffffffffffffffffffffffffff1673ffffffffffffffffffffffffffffffffffffffff16815260200190815260200160002060030160009054906101000a900473ffffffffffffffffffffffffffffffffffffffff1673ffffffffffffffffffffffffffffffffffffffff1673ffffffffffffffffffffffffffffffffffffffff168152602001908152602001600020600401600184610ef39190613469565b81548110610f2a577f4e487b7100000000000000000000000000000000000000000000000000000000600052603260045260246000fd5b9060005260206000200160006101000a81548173ffffffffffffffffffffffffffffffffffffffff021916908373ffffffffffffffffffffffffffffffffffffffff16021790555060096000600860008773ffffffffffffffffffffffffffffffffffffffff1673ffffffffffffffffffffffffffffffffffffffff16815260200190815260200160002060030160009054906101000a900473ffffffffffffffffffffffffffffffffffffffff1673ffffffffffffffffffffffffffffffffffffffff1673ffffffffffffffffffffffffffffffffffffffff16815260200190815260200160002060040180548061104c577f4e487b7100000000000000000000000000000000000000000000000000000000600052603160045260246000fd5b6001900381819060005260206000200160006101000a81549073ffffffffffffffffffffffffffffffffffffffff021916905590556000600860008673ffffffffffffffffffffffffffffffffffffffff1673ffffffffffffffffffffffffffffffffffffffff16815260200190815260200160002060080160006101000a81548160ff0219169083151502179055506000600860008673ffffffffffffffffffffffffffffffffffffffff1673ffffffffffffffffffffffffffffffffffffffff16815260200190815260200160002060080160016101000a81548160ff021916908315150217905550505b505050565b600080600960008473ffffffffffffffffffffffffffffffffffffffff1673ffffffffffffffffffffffffffffffffffffffff1681526020019081526020016000206000015411156111935760019050611198565b600090505b919050565b600760008154809291906111b09061359c565b9190505550600560008154809291906111c89061359c565b919050555060006001905060003390506003819080600181540180825580915050600190039060005260206000200160009091909190916101000a81548173ffffffffffffffffffffffffffffffffffffffff021916908373ffffffffffffffffffffffffffffffffffffffff160217905550606060405180610140016040528060055481526020018373ffffffffffffffffffffffffffffffffffffffff1681526020018a8152602001898152602001828152602001888152602001878152602001868152602001858152602001841515815250600960008473ffffffffffffffffffffffffffffffffffffffff1673ffffffffffffffffffffffffffffffffffffffff1681526020019081526020016000206000820151816000015560208201518160010160006101000a81548173ffffffffffffffffffffffffffffffffffffffff021916908373ffffffffffffffffffffffffffffffffffffffff1602179055506040820151816002019080519060200190611349929190612bfb565b506060820151816003019080519060200190611366929190612bfb565b506080820151816004019080519060200190611383929190612c81565b5060a08201518160050190805190602001906113a0929190612bfb565b5060c08201518160060190805190602001906113bd929190612bfb565b5060e0820151816007015561010082015181600801556101208201518160090160006101000a81548160ff021916908315150217905550905050505050505050505050565b6000339050600960008373ffffffffffffffffffffffffffffffffffffffff1673ffffffffffffffffffffffffffffffffffffffff16815260200190815260200160002060070154341461149c578073ffffffffffffffffffffffffffffffffffffffff166108fc349081150290604051600060405180830381858888f19350505050158015611496573d6000803e3d6000fd5b5061161c565b81600860008373ffffffffffffffffffffffffffffffffffffffff1673ffffffffffffffffffffffffffffffffffffffff16815260200190815260200160002060030160006101000a81548173ffffffffffffffffffffffffffffffffffffffff021916908373ffffffffffffffffffffffffffffffffffffffff160217905550600960008373ffffffffffffffffffffffffffffffffffffffff1673ffffffffffffffffffffffffffffffffffffffff168152602001908152602001600020600401819080600181540180825580915050600190039060005260206000200160009091909190916101000a81548173ffffffffffffffffffffffffffffffffffffffff021916908373ffffffffffffffffffffffffffffffffffffffff1602179055506001600860008373ffffffffffffffffffffffffffffffffffffffff1673ffffffffffffffffffffffffffffffffffffffff16815260200190815260200160002060080160006101000a81548160ff0219169083151502179055505b5050565b60096020528060005260406000206000915090508060000154908060010160009054906101000a900473ffffffffffffffffffffffffffffffffffffffff169080600201805461166f90613539565b80601f016020809104026020016040519081016040528092919081815260200182805461169b90613539565b80156116e85780601f106116bd576101008083540402835291602001916116e8565b820191906000526020600020905b8154815290600101906020018083116116cb57829003601f168201915b5050505050908060030180546116fd90613539565b80601f016020809104026020016040519081016040528092919081815260200182805461172990613539565b80156117765780601f1061174b57610100808354040283529160200191611776565b820191906000526020600020905b81548152906001019060200180831161175957829003601f168201915b50505050509080600501805461178b90613539565b80601f01602080910402602001604051908101604052809291908181526020018280546117b790613539565b80156118045780601f106117d957610100808354040283529160200191611804565b820191906000526020600020905b8154815290600101906020018083116117e757829003601f168201915b50505050509080600601805461181990613539565b80601f016020809104026020016040519081016040528092919081815260200182805461184590613539565b80156118925780601f1061186757610100808354040283529160200191611892565b820191906000526020600020905b81548152906001019060200180831161187557829003601f168201915b5050505050908060070154908060080154908060090160009054906101000a900460ff16905089565b6060600180548060200260200160405190810160405280929190818152602001828054801561193f57602002820191906000526020600020905b8160009054906101000a900473ffffffffffffffffffffffffffffffffffffffff1673ffffffffffffffffffffffffffffffffffffffff16815260200190600101908083116118f5575b5050505050905090565b6003818154811061195957600080fd5b906000526020600020016000915054906101000a900473ffffffffffffffffffffffffffffffffffffffff1681565b600047905090565b600181815481106119a057600080fd5b906000526020600020016000915054906101000a900473ffffffffffffffffffffffffffffffffffffffff1681565b60086020528060005260406000206000915090508060000154908060010160009054906101000a900473ffffffffffffffffffffffffffffffffffffffff1690806002018054611a1e90613539565b80601f0160208091040260200160405190810160405280929190818152602001828054611a4a90613539565b8015611a975780601f10611a6c57610100808354040283529160200191611a97565b820191906000526020600020905b815481529060010190602001808311611a7a57829003601f168201915b5050505050908060030160009054906101000a900473ffffffffffffffffffffffffffffffffffffffff1690806004018054611ad290613539565b80601f0160208091040260200160405190810160405280929190818152602001828054611afe90613539565b8015611b4b5780601f10611b2057610100808354040283529160200191611b4b565b820191906000526020600020905b815481529060010190602001808311611b2e57829003601f168201915b505050505090806005018054611b6090613539565b80601f0160208091040260200160405190810160405280929190818152602001828054611b8c90613539565b8015611bd95780601f10611bae57610100808354040283529160200191611bd9565b820191906000526020600020905b815481529060010190602001808311611bbc57829003601f168201915b505050505090806006018054611bee90613539565b80601f0160208091040260200160405190810160405280929190818152602001828054611c1a90613539565b8015611c675780601f10611c3c57610100808354040283529160200191611c67565b820191906000526020600020905b815481529060010190602001808311611c4a57829003601f168201915b505050505090806007018054611c7c90613539565b80601f0160208091040260200160405190810160405280929190818152602001828054611ca890613539565b8015611cf55780601f10611cca57610100808354040283529160200191611cf5565b820191906000526020600020905b815481529060010190602001808311611cd857829003601f168201915b5050505050908060080160009054906101000a900460ff16908060080160019054906101000a900460ff16908060080160029054906101000a900460ff1690508b565b600080600860008473ffffffffffffffffffffffffffffffffffffffff1673ffffffffffffffffffffffffffffffffffffffff168152602001908152602001600020600001541115611d8d5760019050611d92565b600090505b919050565b60066000815480929190611daa9061359c565b919050555060046000815480929190611dc29061359c565b919050555060003390506000806000806002859080600181540180825580915050600190039060005260206000200160009091909190916101000a81548173ffffffffffffffffffffffffffffffffffffffff021916908373ffffffffffffffffffffffffffffffffffffffff16021790555060405180610160016040528060045481526020018673ffffffffffffffffffffffffffffffffffffffff1681526020018a81526020018573ffffffffffffffffffffffffffffffffffffffff1681526020018b815260200189815260200188815260200187815260200184151581526020018315158152602001821515815250600860008773ffffffffffffffffffffffffffffffffffffffff1673ffffffffffffffffffffffffffffffffffffffff1681526020019081526020016000206000820151816000015560208201518160010160006101000a81548173ffffffffffffffffffffffffffffffffffffffff021916908373ffffffffffffffffffffffffffffffffffffffff1602179055506040820151816002019080519060200190611f61929190612bfb565b5060608201518160030160006101000a81548173ffffffffffffffffffffffffffffffffffffffff021916908373ffffffffffffffffffffffffffffffffffffffff1602179055506080820151816004019080519060200190611fc5929190612bfb565b5060a0820151816005019080519060200190611fe2929190612bfb565b5060c0820151816006019080519060200190611fff929190612bfb565b5060e082015181600701908051906020019061201c929190612bfb565b506101008201518160080160006101000a81548160ff0219169083151502179055506101208201518160080160016101000a81548160ff0219169083151502179055506101408201518160080160026101000a81548160ff02191690831515021790555090505050505050505050505050565b6060600960008373ffffffffffffffffffffffffffffffffffffffff1673ffffffffffffffffffffffffffffffffffffffff16815260200190815260200160002060040180548060200260200160405190810160405280929190818152602001828054801561215357602002820191906000526020600020905b8160009054906101000a900473ffffffffffffffffffffffffffffffffffffffff1673ffffffffffffffffffffffffffffffffffffffff1681526020019060010190808311612109575b50505050509050919050565b8173ffffffffffffffffffffffffffffffffffffffff166108fc600960008473ffffffffffffffffffffffffffffffffffffffff1673ffffffffffffffffffffffffffffffffffffffff16815260200190815260200160002060070154476121c79190613469565b476121d29190613469565b9081150290604051600060405180830381858888f193505050501580156121fd573d6000803e3d6000fd5b505050565b6001600860008373ffffffffffffffffffffffffffffffffffffffff1673ffffffffffffffffffffffffffffffffffffffff16815260200190815260200160002060080160016101000a81548160ff02191690831515021790555050565b600033905060011515600960008373ffffffffffffffffffffffffffffffffffffffff1673ffffffffffffffffffffffffffffffffffffffff16815260200190815260200160002060090160009054906101000a900460ff161515141561288a576000600960008373ffffffffffffffffffffffffffffffffffffffff1673ffffffffffffffffffffffffffffffffffffffff16815260200190815260200160002060090160006101000a81548160ff0219169083151502179055506000805b600960008473ffffffffffffffffffffffffffffffffffffffff1673ffffffffffffffffffffffffffffffffffffffff1681526020019081526020016000206004018054905082101561288357600960008473ffffffffffffffffffffffffffffffffffffffff1673ffffffffffffffffffffffffffffffffffffffff16815260200190815260200160002060040182815481106123e7577f4e487b7100000000000000000000000000000000000000000000000000000000600052603260045260246000fd5b9060005260206000200160009054906101000a900473ffffffffffffffffffffffffffffffffffffffff16905060001515600860008373ffffffffffffffffffffffffffffffffffffffff1673ffffffffffffffffffffffffffffffffffffffff16815260200190815260200160002060080160019054906101000a900460ff161515141561286f576000600960008573ffffffffffffffffffffffffffffffffffffffff1673ffffffffffffffffffffffffffffffffffffffff1681526020019081526020016000206004018054905090506000600860008473ffffffffffffffffffffffffffffffffffffffff1673ffffffffffffffffffffffffffffffffffffffff16815260200190815260200160002060080160006101000a81548160ff0219169083151502179055506001600860008473ffffffffffffffffffffffffffffffffffffffff1673ffffffffffffffffffffffffffffffffffffffff16815260200190815260200160002060080160026101000a81548160ff02191690831515021790555061257a828561215f565b600960008573ffffffffffffffffffffffffffffffffffffffff1673ffffffffffffffffffffffffffffffffffffffff1681526020019081526020016000206004016001826125c99190613469565b81548110612600577f4e487b7100000000000000000000000000000000000000000000000000000000600052603260045260246000fd5b9060005260206000200160009054906101000a900473ffffffffffffffffffffffffffffffffffffffff16600960008673ffffffffffffffffffffffffffffffffffffffff1673ffffffffffffffffffffffffffffffffffffffff16815260200190815260200160002060040184815481106126a5577f4e487b7100000000000000000000000000000000000000000000000000000000600052603260045260246000fd5b9060005260206000200160006101000a81548173ffffffffffffffffffffffffffffffffffffffff021916908373ffffffffffffffffffffffffffffffffffffffff16021790555081600960008673ffffffffffffffffffffffffffffffffffffffff1673ffffffffffffffffffffffffffffffffffffffff16815260200190815260200160002060040160018361273d9190613469565b81548110612774577f4e487b7100000000000000000000000000000000000000000000000000000000600052603260045260246000fd5b9060005260206000200160006101000a81548173ffffffffffffffffffffffffffffffffffffffff021916908373ffffffffffffffffffffffffffffffffffffffff160217905550600960008573ffffffffffffffffffffffffffffffffffffffff1673ffffffffffffffffffffffffffffffffffffffff168152602001908152602001600020600401805480612834577f4e487b7100000000000000000000000000000000000000000000000000000000600052603160045260246000fd5b6001900381819060005260206000200160006101000a81549073ffffffffffffffffffffffffffffffffffffffff021916905590555061287e565b818061287a9061359c565b9250505b612320565b50506128e6565b6001600960008373ffffffffffffffffffffffffffffffffffffffff1673ffffffffffffffffffffffffffffffffffffffff16815260200190815260200160002060090160006101000a81548160ff0219169083151502179055505b50565b6060600280548060200260200160405190810160405280929190818152602001828054801561296d57602002820191906000526020600020905b8160009054906101000a900473ffffffffffffffffffffffffffffffffffffffff1673ffffffffffffffffffffffffffffffffffffffff1681526020019060010190808311612923575b5050505050905090565b6002818154811061298757600080fd5b906000526020600020016000915054906101000a900473ffffffffffffffffffffffffffffffffffffffff1681565b600067ffffffffffffffff8111156129f7577f4e487b7100000000000000000000000000000000000000000000000000000000600052604160045260246000fd5b604051908082528060200260200182016040528015612a255781602001602082028036833780820191505090505b5060019080519060200190612a3b929190612c81565b5060005b600380549050811015612bd357816009600060038481548110612a8b577f4e487b7100000000000000000000000000000000000000000000000000000000600052603260045260246000fd5b9060005260206000200160009054906101000a900473ffffffffffffffffffffffffffffffffffffffff1673ffffffffffffffffffffffffffffffffffffffff1673ffffffffffffffffffffffffffffffffffffffff168152602001908152602001600020600801541415612bc257600160038281548110612b36577f4e487b7100000000000000000000000000000000000000000000000000000000600052603260045260246000fd5b9060005260206000200160009054906101000a900473ffffffffffffffffffffffffffffffffffffffff169080600181540180825580915050600190039060005260206000200160009091909190916101000a81548173ffffffffffffffffffffffffffffffffffffffff021916908373ffffffffffffffffffffffffffffffffffffffff1602179055505b80612bcc9061359c565b9050612a3f565b5050565b60008054906101000a900473ffffffffffffffffffffffffffffffffffffffff1681565b828054612c0790613539565b90600052602060002090601f016020900481019282612c295760008555612c70565b82601f10612c4257805160ff1916838001178555612c70565b82800160010185558215612c70579182015b82811115612c6f578251825591602001919060010190612c54565b5b509050612c7d9190612d0b565b5090565b828054828255906000526020600020908101928215612cfa579160200282015b82811115612cf95782518260006101000a81548173ffffffffffffffffffffffffffffffffffffffff021916908373ffffffffffffffffffffffffffffffffffffffff16021790555091602001919060010190612ca1565b5b509050612d079190612d0b565b5090565b5b80821115612d24576000816000905550600101612d0c565b5090565b6000612d3b612d3684613358565b613333565b905082815260208101848484011115612d5357600080fd5b612d5e8482856134f7565b509392505050565b600081359050612d75816136b2565b92915050565b600081359050612d8a816136c9565b92915050565b600082601f830112612da157600080fd5b8135612db1848260208601612d28565b91505092915050565b600081359050612dc9816136e0565b92915050565b600060208284031215612de157600080fd5b6000612def84828501612d66565b91505092915050565b600060208284031215612e0a57600080fd5b6000612e1884828501612d7b565b91505092915050565b60008060408385031215612e3457600080fd5b6000612e4285828601612d7b565b9250506020612e5385828601612d7b565b9150509250929050565b600080600080600060a08688031215612e7557600080fd5b600086013567ffffffffffffffff811115612e8f57600080fd5b612e9b88828901612d90565b955050602086013567ffffffffffffffff811115612eb857600080fd5b612ec488828901612d90565b945050604086013567ffffffffffffffff811115612ee157600080fd5b612eed88828901612d90565b935050606086013567ffffffffffffffff811115612f0a57600080fd5b612f1688828901612d90565b925050608086013567ffffffffffffffff811115612f3357600080fd5b612f3f88828901612d90565b9150509295509295909350565b60008060008060008060c08789031215612f6557600080fd5b600087013567ffffffffffffffff811115612f7f57600080fd5b612f8b89828a01612d90565b965050602087013567ffffffffffffffff811115612fa857600080fd5b612fb489828a01612d90565b955050604087013567ffffffffffffffff811115612fd157600080fd5b612fdd89828a01612d90565b945050606087013567ffffffffffffffff811115612ffa57600080fd5b61300689828a01612d90565b935050608061301789828a01612dba565b92505060a061302889828a01612dba565b9150509295509295509295565b60006020828403121561304757600080fd5b600061305584828501612dba565b91505092915050565b600061306a8383613076565b60208301905092915050565b61307f816134af565b82525050565b61308e816134af565b82525050565b600061309f82613399565b6130a981856133bc565b93506130b483613389565b8060005b838110156130e55781516130cc888261305e565b97506130d7836133af565b9250506001810190506130b8565b5085935050505092915050565b6130fb816134c1565b82525050565b600061310c826133a4565b61311681856133cd565b9350613126818560208601613506565b61312f816136a1565b840191505092915050565b613143816134ed565b82525050565b600060208201905061315e6000830184613085565b92915050565b6000602082019050818103600083015261317e8184613094565b905092915050565b600060208201905061319b60008301846130f2565b92915050565b60006020820190506131b6600083018461313a565b92915050565b6000610160820190506131d2600083018e61313a565b6131df602083018d613085565b81810360408301526131f1818c613101565b9050613200606083018b613085565b8181036080830152613212818a613101565b905081810360a08301526132268189613101565b905081810360c083015261323a8188613101565b905081810360e083015261324e8187613101565b905061325e6101008301866130f2565b61326c6101208301856130f2565b61327a6101408301846130f2565b9c9b505050505050505050505050565b6000610120820190506132a0600083018c61313a565b6132ad602083018b613085565b81810360408301526132bf818a613101565b905081810360608301526132d38189613101565b905081810360808301526132e78188613101565b905081810360a08301526132fb8187613101565b905061330a60c083018661313a565b61331760e083018561313a565b6133256101008301846130f2565b9a9950505050505050505050565b600061333d61334e565b9050613349828261356b565b919050565b6000604051905090565b600067ffffffffffffffff82111561337357613372613672565b5b61337c826136a1565b9050602081019050919050565b6000819050602082019050919050565b600081519050919050565b600081519050919050565b6000602082019050919050565b600082825260208201905092915050565b600082825260208201905092915050565b60006133e9826134ed565b91506133f4836134ed565b92508261340457613403613614565b5b828204905092915050565b600061341a826134ed565b9150613425836134ed565b9250817fffffffffffffffffffffffffffffffffffffffffffffffffffffffffffffffff048311821515161561345e5761345d6135e5565b5b828202905092915050565b6000613474826134ed565b915061347f836134ed565b925082821015613492576134916135e5565b5b828203905092915050565b60006134a8826134cd565b9050919050565b60006134ba826134cd565b9050919050565b60008115159050919050565b600073ffffffffffffffffffffffffffffffffffffffff82169050919050565b6000819050919050565b82818337600083830152505050565b60005b83811015613524578082015181840152602081019050613509565b83811115613533576000848401525b50505050565b6000600282049050600182168061355157607f821691505b6020821081141561356557613564613643565b5b50919050565b613574826136a1565b810181811067ffffffffffffffff8211171561359357613592613672565b5b80604052505050565b60006135a7826134ed565b91507fffffffffffffffffffffffffffffffffffffffffffffffffffffffffffffffff8214156135da576135d96135e5565b5b600182019050919050565b7f4e487b7100000000000000000000000000000000000000000000000000000000600052601160045260246000fd5b7f4e487b7100000000000000000000000000000000000000000000000000000000600052601260045260246000fd5b7f4e487b7100000000000000000000000000000000000000000000000000000000600052602260045260246000fd5b7f4e487b7100000000000000000000000000000000000000000000000000000000600052604160045260246000fd5b6000601f19601f8301169050919050565b6136bb8161349d565b81146136c657600080fd5b50565b6136d2816134af565b81146136dd57600080fd5b50565b6136e9816134ed565b81146136f457600080fd5b5056fea264697066735822122043c829ffe7465e586424b60fe1ef78677d53bef367d6dc2546811d2b16ff4dea64736f6c63430008020033",
  "immutableReferences": {},
  "source": "// SPDX-License-Identifier: MIT\npragma solidity >=0.7.0 <0.9.0;\n\n\ncontract Model {\n\n    address payable public admin;\n    constructor(){\n        usersCount =0;\n        admin = payable(msg.sender);\n        address payable sp = payable(0);\n        usersCount++;\n        address payable x = payable(0xdCad3a6d3569DF655070DEd06cb7A1b2Ccd1D3AF);\n        user_Addresses.push(x);\n        Users[x] = User(usersCount,x,\"ABCD\",sp,\"Bhuwnesh\",\"Bangalore\",\"bhuwnesh.126@gm.com\",\"263139\",false,false,false);\n        x = payable(0x626C16139e73fa877Ec4B2BBaD02C824C8e95bc0);\n        user_Addresses.push(x);\n        usersCount++;\n        Users[x] = User(usersCount,x,\"ABCD\",sp,\"Bhuwnesh\",\"Bangalore\",\"bhuwnesh.126@gm.com\",\"263139\",false,false,false);\n        x = payable(0x55dBD85Eb48a426a9075c059Fb719Ca843a1e8eE);\n        user_Addresses.push(x);\n        usersCount++;\n        Users[x] = User(usersCount,x,\"ABCD\",sp,\"Bhuwnesh\",\"Bangalore\",\"bhuwnesh.126@gm.com\",\"263139\",false,false,false);\n        x = payable(0x0BBC5d5D3D89B3a213c420A9630c72C0966c8b71);\n        user_Addresses.push(x);\n        usersCount++;\n        Users[x] = User(usersCount,x,\"ABCD\",sp,\"Bhuwnesh\",\"Bangalore\",\"bhuwnesh.126@gm.com\",\"263139\",false,false,false);\n        x = payable(0xC6d640ce6A7431bE86Eda5AF05873662aA560d40);\n        user_Addresses.push(x);\n        usersCount++;\n        Users[x] = User(usersCount,x,\"ABCD\",sp,\"Bhuwnesh\",\"Bangalore\",\"bhuwnesh.126@gm.com\",\"263139\",false,false,false);\n\n        address payable[] memory sp2 = new address payable[](0);\n        serviceProviderCount = 0;\n        serviceProviderCount++;\n        x = payable(0x5D2Cf9B829EA3D1D428AeE131909d2b63921eeaC);\n        sp_Addresses.push(x);\n        ServiceProviders[x] = Service_Provider(serviceProviderCount,x,\"Sajal Singh\",\"Bangalore\",sp2, 'sajal.singh@outlook.com','+917579245939',1200000000, 1,true);\n\n        serviceProviderCount++;\n        x = payable(0x0f341A3FFD5af4F2112a201f109a482445fb97AE);\n        sp_Addresses.push(x);\n        ServiceProviders[x] = Service_Provider(serviceProviderCount,x,\"Dada Singh\",\"Bangalore\",sp2, 'dada.singh@outlook.in','+919687545667',1200000000, 2,true);\n\n        serviceProviderCount++;\n        x = payable(0x110A50271a65EE265a4b4457aC412C76c9791678);\n        sp_Addresses.push(x);\n        ServiceProviders[x] = Service_Provider(serviceProviderCount,x,\"Saurabh Singh\",\"Bangalore\",sp2, 'saurabh@outlook.com','+918909524009',1200000000, 2,true);\n\n        serviceProviderCount++;\n        x = payable(0xD3B7f2A8e0EDa1b2C6a0B49c6C79Ca9a3996C2AA);\n        sp_Addresses.push(x);\n        ServiceProviders[x] = Service_Provider(serviceProviderCount,x,\"Anjan Shetty\",\"Bangalore\",sp2, 'anjan@iiitb.org.in','+919411107360',1200000000, 2,true);\n\n\n        serviceProviderCount++;\n        x = payable(0xd39cD70F514a0814c2Fc59350e11AA0EbA2b8CE8);\n        sp_Addresses.push(x);\n        ServiceProviders[x] = Service_Provider(serviceProviderCount,x,\"Dada Dungeon\",\"Bangalore\",sp2, 'emaiol','obofddsfa',1200000000, 2,true);\n\n\n\n    }\n// structure for Users\n    // structure for Users\n    struct User {\n        uint id;\n        address payable Address;\n        string home_address;\n        address payable sp;\n        string name;\n        string city;\n        string email;\n        string phone;\n        bool serv;\n        bool ongiong_service;\n        bool messagealert;\n\n    }\n\n\n    // structure for Service Provider\n    struct Service_Provider {\n        uint id;\n        address payable Address;\n        string name;\n        string city;\n        address payable [] service_seeker;\n        string phone;\n        string email;\n        uint charges;\n        uint service_type;\n        bool status;\n\n    }\n\n\n    address payable[] public service_providers;\n    address payable[] public  user_Addresses;\n    address payable[] public sp_Addresses;\n    uint usersId = 0;\n    uint serviceProviderId = 0;\n    uint usersCount = 0;\n    uint serviceProviderCount = 0;\n\n    mapping(address => User) public Users;\n    mapping(address => Service_Provider) public ServiceProviders;\n\n    // Function to add Users\n    function addUser(string memory name,string memory home_address, string memory city, string memory email, string memory phone) public payable {\n        usersCount++;\n        usersId++;\n        address payable Address = payable(msg.sender);\n        address payable sp = payable(0);\n        bool serv=false;\n        bool ongiong_service=false;\n        bool messagealert=false;\n        user_Addresses.push(Address);\n        Users[Address] = User(usersId, Address, home_address, sp, name, city, email, phone,serv,ongiong_service,messagealert);\n    }\n\n    // Function to return the array of addresses of Users\n    function getAllUsers() public view returns (address payable [] memory){\n        return user_Addresses;\n    }\n\n    // to check if user exist already or not.\n    function userExist(address payable Address) public view returns (bool){\n        if (Users[Address].id > 0) {\n            return true;\n        }\n        else\n            return false;\n    }\n\n    // Function to check if service provider already exist.\n\n    function serviceProviderExist(address payable Address) public view returns (bool){\n        if (ServiceProviders[Address].id > 0) {\n            return true;\n        }\n        else\n            return false;\n    }\n\n\n    // Function to add service providers\n    function addServiceProvider(string memory name, string memory city, string memory email, string memory phone, uint charges, uint service_type) public payable {\n        serviceProviderCount++;\n        serviceProviderId++;\n        bool status =true;\n        address payable Address = payable(msg.sender);\n        sp_Addresses.push(Address);\n        address payable [] memory service_seeker;\n        ServiceProviders[Address] = Service_Provider(serviceProviderId, Address, name, city, service_seeker, email, phone, charges, service_type,status);\n\n\n    }\n    // function to return a service provider list to user\n    function render_List(uint service_type) public {\n        service_providers = new address payable [](0);\n        uint i = 0;\n        for (i = 0; i < sp_Addresses.length; ++i) {\n            if (ServiceProviders[sp_Addresses[i]].service_type == service_type) {\n\n                service_providers.push(sp_Addresses[i]);}\n        }\n\n    }\n\n    function return_rendered_List() public view returns (address payable[] memory){\n        return service_providers;\n    }\n    //function to return the array of addresses of Service Providers\n    function getAllServiceProviders() public view returns (address payable [] memory){\n        return sp_Addresses;\n    }\n\n    //require(msg.value == 2 ether)\n    // function for checking ether value and registeration of user to particular service Providers\n    function requestService(address payable sp) public payable {\n        address payable user;\n\n        user = payable(msg.sender);\n\n        if (msg.value != ServiceProviders[sp].charges) {\n            user.transfer(msg.value);\n\n        }\n        else {\n            Users[user].sp = sp;\n            ServiceProviders[sp].service_seeker.push(user);\n            Users[user].serv=true;\n\n\n        }\n\n    }\n\n    function servicecompleted() public payable {\n        address payable user;\n        user = payable(msg.sender);\n        uint i = 0;\n        uint length = ServiceProviders[Users[user].sp].service_seeker.length;\n        // loop to check whether user is present in service provider list or not\n        for (; i < length; i++)\n        {\n            if (ServiceProviders[Users[user].sp].service_seeker[i] == user)\n                break;\n        }\n        // if user not present then we transfer 0 to the service provider\n        if (i == ServiceProviders[Users[user].sp].service_seeker.length)\n            Users[user].sp.transfer(0);\n        else {\n            uint amount = (100 * ServiceProviders[Users[user].sp].charges - 95 * ServiceProviders[Users[user].sp].charges) / 100;\n            admin.transfer(amount);\n            Users[user].sp.transfer((90 * ServiceProviders[Users[user].sp].charges) / 100);\n            // this to delete the user from service provider list\n            ServiceProviders[Users[user].sp].service_seeker[i] = ServiceProviders[Users[user].sp].service_seeker[length - 1];\n            ServiceProviders[Users[user].sp].service_seeker[length - 1] = user;\n            ServiceProviders[Users[user].sp].service_seeker.pop();\n            Users[user].serv=false;\n            Users[user].ongiong_service=false;\n\n        }\n\n    }\n    function service_choice(address payable user)public payable{\n\n        Users[user].ongiong_service=true;\n\n\n    }\n\n\n    function service_off() public payable{\n        address payable sp;\n        sp=payable(msg.sender);\n        if(ServiceProviders[sp].status==true)\n        {\n            ServiceProviders[sp].status=false;\n            uint i=0;\n            address payable user;\n            for(;i<ServiceProviders[sp].service_seeker.length;)\n            {\n\n                user=ServiceProviders[sp].service_seeker[i];\n                if(Users[user].ongiong_service==false)\n                {   uint length=ServiceProviders[sp].service_seeker.length;\n                    Users[user].serv=false;\n                    Users[user].messagealert=true;\n                    getBalance(user,sp);\n\n                    ServiceProviders[sp].service_seeker[i]= ServiceProviders[sp].service_seeker[length-1] ;\n                    ServiceProviders[sp].service_seeker[length-1] =user;\n                    ServiceProviders[sp].service_seeker.pop();\n                }\n                else\n                {\n                    i++;\n                }\n            }\n        }\n        else\n            ServiceProviders[sp].status=true;\n\n\n    }\n\n    function getBalance(address payable user,address payable sp) public payable{\n        user.transfer(address(this).balance-(address(this).balance-ServiceProviders[sp].charges));\n    }\n    function eth() public  view returns (uint){\n        return address(this).balance;\n    }\n\n    function return_my_users(address payable sp) public view returns(address payable [] memory){\n        return ServiceProviders[sp].service_seeker;\n    }\n\n}",
  "sourcePath": "/home/sajal/Desktop/SPE-final-project-master/contracts/Model.sol",
  "compiler": {
    "name": "solc",
    "version": "0.8.2+commit.661d1103.Emscripten.clang"
  },
  "schemaVersion": "3.3.4",
  "updatedAt": "2021-04-18T18:54:48.970Z",
  "networkType": "ethereum",
  "devdoc": {
    "kind": "dev",
    "methods": {},
    "version": 1
  },
  "userdoc": {
    "kind": "user",
    "methods": {},
    "version": 1
  }
}